{
  "contractName": "InfinityTower",
  "abi": [
    {
      "anonymous": false,
      "inputs": [
        {
          "indexed": false,
          "internalType": "uint256",
          "name": "floor",
          "type": "uint256"
        },
        {
          "indexed": false,
          "internalType": "string",
          "name": "ownerName",
          "type": "string"
        },
        {
          "indexed": false,
          "internalType": "string",
          "name": "message",
          "type": "string"
        },
        {
          "indexed": false,
          "internalType": "string",
          "name": "link",
          "type": "string"
        },
        {
          "indexed": false,
          "internalType": "uint256",
          "name": "color",
          "type": "uint256"
        },
        {
          "indexed": false,
          "internalType": "uint256",
          "name": "windowsTint",
          "type": "uint256"
        }
      ],
      "name": "NewFLoor",
      "type": "event"
    },
    {
      "inputs": [
        {
          "internalType": "uint256",
          "name": "",
          "type": "uint256"
        }
      ],
      "name": "floors",
      "outputs": [
        {
          "internalType": "string",
          "name": "ownerName",
          "type": "string"
        },
        {
          "internalType": "string",
          "name": "message",
          "type": "string"
        },
        {
          "internalType": "string",
          "name": "link",
          "type": "string"
        },
        {
          "internalType": "uint256",
          "name": "color",
          "type": "uint256"
        },
        {
          "internalType": "uint256",
          "name": "windowsTint",
          "type": "uint256"
        }
      ],
      "stateMutability": "view",
      "type": "function"
    },
    {
      "inputs": [],
      "name": "nbFloors",
      "outputs": [
        {
          "internalType": "uint256",
          "name": "",
          "type": "uint256"
        }
      ],
      "stateMutability": "view",
      "type": "function"
    },
    {
      "inputs": [
        {
          "internalType": "string",
          "name": "_ownerName",
          "type": "string"
        },
        {
          "internalType": "string",
          "name": "_message",
          "type": "string"
        },
        {
          "internalType": "string",
          "name": "_link",
          "type": "string"
        },
        {
          "internalType": "uint256",
          "name": "_color",
          "type": "uint256"
        },
        {
          "internalType": "uint256",
          "name": "_windowsTint",
          "type": "uint256"
        }
      ],
      "name": "createFloor",
      "outputs": [],
      "stateMutability": "nonpayable",
      "type": "function"
    }
  ],
  "bytecode": "0x608060405234801561000f575f80fd5b50610af38061001d5f395ff3fe608060405234801561000f575f80fd5b506004361061003f575f3560e01c80634522f7281461004357806347f394711461005f5780636e1e21bb14610093575b5f80fd5b61005d6004803603810190610058919061050e565b6100b1565b005b610079600480360381019061007491906105d9565b6101b6565b60405161008a95949392919061068d565b60405180910390f35b61009b610388565b6040516100a891906106f3565b60405180910390f35b5f6040518060a0016040528087815260200186815260200185815260200184815260200183815250908060018154018082558091505060019003905f5260205f2090600502015f909190919091505f820151815f0190816101129190610906565b5060208201518160010190816101289190610906565b50604082015181600201908161013e9190610906565b50606082015181600301556080820151816004015550507f5f68cace9f362137ffa85eec0d920fc6a78789034b97b03f5dede0e4e610d5cf6001548686868686604051610190969594939291906109d5565b60405180910390a160015f8154809291906101aa90610a76565b91905055505050505050565b5f81815481106101c4575f80fd5b905f5260205f2090600502015f91509050805f0180546101e390610739565b80601f016020809104026020016040519081016040528092919081815260200182805461020f90610739565b801561025a5780601f106102315761010080835404028352916020019161025a565b820191905f5260205f20905b81548152906001019060200180831161023d57829003601f168201915b50505050509080600101805461026f90610739565b80601f016020809104026020016040519081016040528092919081815260200182805461029b90610739565b80156102e65780601f106102bd576101008083540402835291602001916102e6565b820191905f5260205f20905b8154815290600101906020018083116102c957829003601f168201915b5050505050908060020180546102fb90610739565b80601f016020809104026020016040519081016040528092919081815260200182805461032790610739565b80156103725780601f1061034957610100808354040283529160200191610372565b820191905f5260205f20905b81548152906001019060200180831161035557829003601f168201915b5050505050908060030154908060040154905085565b60015481565b5f604051905090565b5f80fd5b5f80fd5b5f80fd5b5f80fd5b5f601f19601f8301169050919050565b7f4e487b71000000000000000000000000000000000000000000000000000000005f52604160045260245ffd5b6103ed826103a7565b810181811067ffffffffffffffff8211171561040c5761040b6103b7565b5b80604052505050565b5f61041e61038e565b905061042a82826103e4565b919050565b5f67ffffffffffffffff821115610449576104486103b7565b5b610452826103a7565b9050602081019050919050565b828183375f83830152505050565b5f61047f61047a8461042f565b610415565b90508281526020810184848401111561049b5761049a6103a3565b5b6104a684828561045f565b509392505050565b5f82601f8301126104c2576104c161039f565b5b81356104d284826020860161046d565b91505092915050565b5f819050919050565b6104ed816104db565b81146104f7575f80fd5b50565b5f81359050610508816104e4565b92915050565b5f805f805f60a0868803121561052757610526610397565b5b5f86013567ffffffffffffffff8111156105445761054361039b565b5b610550888289016104ae565b955050602086013567ffffffffffffffff8111156105715761057061039b565b5b61057d888289016104ae565b945050604086013567ffffffffffffffff81111561059e5761059d61039b565b5b6105aa888289016104ae565b93505060606105bb888289016104fa565b92505060806105cc888289016104fa565b9150509295509295909350565b5f602082840312156105ee576105ed610397565b5b5f6105fb848285016104fa565b91505092915050565b5f81519050919050565b5f82825260208201905092915050565b5f5b8381101561063b578082015181840152602081019050610620565b5f8484015250505050565b5f61065082610604565b61065a818561060e565b935061066a81856020860161061e565b610673816103a7565b840191505092915050565b610687816104db565b82525050565b5f60a0820190508181035f8301526106a58188610646565b905081810360208301526106b98187610646565b905081810360408301526106cd8186610646565b90506106dc606083018561067e565b6106e9608083018461067e565b9695505050505050565b5f6020820190506107065f83018461067e565b92915050565b7f4e487b71000000000000000000000000000000000000000000000000000000005f52602260045260245ffd5b5f600282049050600182168061075057607f821691505b6020821081036107635761076261070c565b5b50919050565b5f819050815f5260205f209050919050565b5f6020601f8301049050919050565b5f82821b905092915050565b5f600883026107c57fffffffffffffffffffffffffffffffffffffffffffffffffffffffffffffffff8261078a565b6107cf868361078a565b95508019841693508086168417925050509392505050565b5f819050919050565b5f61080a610805610800846104db565b6107e7565b6104db565b9050919050565b5f819050919050565b610823836107f0565b61083761082f82610811565b848454610796565b825550505050565b5f90565b61084b61083f565b61085681848461081a565b505050565b5b818110156108795761086e5f82610843565b60018101905061085c565b5050565b601f8211156108be5761088f81610769565b6108988461077b565b810160208510156108a7578190505b6108bb6108b38561077b565b83018261085b565b50505b505050565b5f82821c905092915050565b5f6108de5f19846008026108c3565b1980831691505092915050565b5f6108f683836108cf565b9150826002028217905092915050565b61090f82610604565b67ffffffffffffffff811115610928576109276103b7565b5b6109328254610739565b61093d82828561087d565b5f60209050601f83116001811461096e575f841561095c578287015190505b61096685826108eb565b8655506109cd565b601f19841661097c86610769565b5f5b828110156109a35784890151825560018201915060208501945060208101905061097e565b868310156109c057848901516109bc601f8916826108cf565b8355505b6001600288020188555050505b505050505050565b5f60c0820190506109e85f83018961067e565b81810360208301526109fa8188610646565b90508181036040830152610a0e8187610646565b90508181036060830152610a228186610646565b9050610a31608083018561067e565b610a3e60a083018461067e565b979650505050505050565b7f4e487b71000000000000000000000000000000000000000000000000000000005f52601160045260245ffd5b5f610a80826104db565b91507fffffffffffffffffffffffffffffffffffffffffffffffffffffffffffffffff8203610ab257610ab1610a49565b5b60018201905091905056fea264697066735822122056ec87bda07035dcef5bddfb4f8d4fdcd900c26be3a41033a2466dc0d01c20d264736f6c63430008150033",
  "immutableReferences": {},
  "source": "//SPDX-License-Identifier: GPL - 3.0\n\npragma solidity >=0.7.0 <0.9.0;\n\ncontract InfinityTower{\n\n    //defined what a floor is\n    struct Floor{\n        string ownerName;\n        string message;\n        string link;\n        uint color;\n        uint windowsTint;\n    }\n\n    //because we don't want to go through each floor in the array to get all info, we create an event\n    event NewFLoor(uint floor, string ownerName, string message, string link, uint color, uint windowsTint);\n\n    //our tower needs these floors\n    Floor[] public floors; \n\n    //the number of floors, don't need\n    uint public nbFloors;\n   \n    //the _ means its not variables that exist in our contract\n    function createFloor(string memory _ownerName, string memory _message, string memory _link, uint _color, uint _windowsTint ) public {\n        //push this info onto floors\n        floors.push(Floor (_ownerName, _message, _link, _color, _windowsTint));\n        //emit will display to the frontend that a newfloor has been created\n        emit NewFLoor(nbFloors, _ownerName, _message, _link, _color, _windowsTint);\n        nbFloors++;\n    }\n\n}",
  "sourcePath": "/Users/aparna/Documents/GitHub/dummyDapp/contracts/InfinityTower.sol",
  "compiler": {
    "name": "solc",
    "version": "0.8.21+commit.d9974bed.Emscripten.clang"
  },
  "schemaVersion": "3.4.16",
  "updatedAt": "2024-05-03T19:23:43.157Z",
  "devdoc": {
    "kind": "dev",
    "methods": {},
    "version": 1
  },
  "userdoc": {
    "kind": "user",
    "methods": {},
    "version": 1
  }
}