{
  "contractName": "InfinityTower",
  "abi": [
    {
      "anonymous": false,
      "inputs": [
        {
          "indexed": false,
          "internalType": "uint256",
          "name": "floor",
          "type": "uint256"
        },
        {
          "indexed": false,
          "internalType": "string",
          "name": "ownerName",
          "type": "string"
        },
        {
          "indexed": false,
          "internalType": "string",
          "name": "message",
          "type": "string"
        },
        {
          "indexed": false,
          "internalType": "string",
          "name": "link",
          "type": "string"
        },
        {
          "indexed": false,
          "internalType": "uint256",
          "name": "color",
          "type": "uint256"
        },
        {
          "indexed": false,
          "internalType": "uint256",
          "name": "windowsTint",
          "type": "uint256"
        }
      ],
      "name": "NewFLoor",
      "type": "event"
    },
    {
      "inputs": [
        {
          "internalType": "uint256",
          "name": "",
          "type": "uint256"
        }
      ],
      "name": "floors",
      "outputs": [
        {
          "internalType": "string",
          "name": "ownerName",
          "type": "string"
        },
        {
          "internalType": "string",
          "name": "message",
          "type": "string"
        },
        {
          "internalType": "string",
          "name": "link",
          "type": "string"
        },
        {
          "internalType": "uint256",
          "name": "color",
          "type": "uint256"
        },
        {
          "internalType": "uint256",
          "name": "windowsTint",
          "type": "uint256"
        }
      ],
      "stateMutability": "view",
      "type": "function",
      "constant": true
    },
    {
      "inputs": [],
      "name": "nbFloors",
      "outputs": [
        {
          "internalType": "uint256",
          "name": "",
          "type": "uint256"
        }
      ],
      "stateMutability": "view",
      "type": "function",
      "constant": true
    },
    {
      "inputs": [
        {
          "internalType": "string",
          "name": "_ownerName",
          "type": "string"
        },
        {
          "internalType": "string",
          "name": "_message",
          "type": "string"
        },
        {
          "internalType": "string",
          "name": "_link",
          "type": "string"
        },
        {
          "internalType": "uint256",
          "name": "_color",
          "type": "uint256"
        },
        {
          "internalType": "uint256",
          "name": "_windowsTint",
          "type": "uint256"
        }
      ],
      "name": "createFloor",
      "outputs": [],
      "stateMutability": "nonpayable",
      "type": "function"
    }
  ],
  "bytecode": "0x608060405234801561001057600080fd5b50610931806100206000396000f3fe608060405234801561001057600080fd5b50600436106100415760003560e01c80634522f7281461004657806347f39471146100625780636e1e21bb14610096575b600080fd5b610060600480360381019061005b91906104d9565b6100b4565b005b61007c60048036038101906100779190610598565b6101d5565b60405161008d959493929190610609565b60405180910390f35b61009e6103b3565b6040516100ab9190610671565b60405180910390f35b60006040518060a0016040528087815260200186815260200185815260200184815260200183815250908060018154018082558091505060019003906000526020600020906005020160009091909190915060008201518160000190805190602001906101229291906103b9565b50602082015181600101908051906020019061013f9291906103b9565b50604082015181600201908051906020019061015c9291906103b9565b50606082015181600301556080820151816004015550507f5f68cace9f362137ffa85eec0d920fc6a78789034b97b03f5dede0e4e610d5cf60015486868686866040516101ae9695949392919061068c565b60405180910390a1600160008154809291906101c9906107fd565b91905055505050505050565b600081815481106101e557600080fd5b9060005260206000209060050201600091509050806000018054610208906107cb565b80601f0160208091040260200160405190810160405280929190818152602001828054610234906107cb565b80156102815780601f1061025657610100808354040283529160200191610281565b820191906000526020600020905b81548152906001019060200180831161026457829003601f168201915b505050505090806001018054610296906107cb565b80601f01602080910402602001604051908101604052809291908181526020018280546102c2906107cb565b801561030f5780601f106102e45761010080835404028352916020019161030f565b820191906000526020600020905b8154815290600101906020018083116102f257829003601f168201915b505050505090806002018054610324906107cb565b80601f0160208091040260200160405190810160405280929190818152602001828054610350906107cb565b801561039d5780601f106103725761010080835404028352916020019161039d565b820191906000526020600020905b81548152906001019060200180831161038057829003601f168201915b5050505050908060030154908060040154905085565b60015481565b8280546103c5906107cb565b90600052602060002090601f0160209004810192826103e7576000855561042e565b82601f1061040057805160ff191683800117855561042e565b8280016001018555821561042e579182015b8281111561042d578251825591602001919060010190610412565b5b50905061043b919061043f565b5090565b5b80821115610458576000816000905550600101610440565b5090565b600061046f61046a84610733565b610702565b90508281526020810184848401111561048757600080fd5b610492848285610789565b509392505050565b600082601f8301126104ab57600080fd5b81356104bb84826020860161045c565b91505092915050565b6000813590506104d3816108e4565b92915050565b600080600080600060a086880312156104f157600080fd5b600086013567ffffffffffffffff81111561050b57600080fd5b6105178882890161049a565b955050602086013567ffffffffffffffff81111561053457600080fd5b6105408882890161049a565b945050604086013567ffffffffffffffff81111561055d57600080fd5b6105698882890161049a565b935050606061057a888289016104c4565b925050608061058b888289016104c4565b9150509295509295909350565b6000602082840312156105aa57600080fd5b60006105b8848285016104c4565b91505092915050565b60006105cc82610763565b6105d6818561076e565b93506105e6818560208601610798565b6105ef816108d3565b840191505092915050565b6106038161077f565b82525050565b600060a082019050818103600083015261062381886105c1565b9050818103602083015261063781876105c1565b9050818103604083015261064b81866105c1565b905061065a60608301856105fa565b61066760808301846105fa565b9695505050505050565b600060208201905061068660008301846105fa565b92915050565b600060c0820190506106a160008301896105fa565b81810360208301526106b381886105c1565b905081810360408301526106c781876105c1565b905081810360608301526106db81866105c1565b90506106ea60808301856105fa565b6106f760a08301846105fa565b979650505050505050565b6000604051905081810181811067ffffffffffffffff82111715610729576107286108a4565b5b8060405250919050565b600067ffffffffffffffff82111561074e5761074d6108a4565b5b601f19601f8301169050602081019050919050565b600081519050919050565b600082825260208201905092915050565b6000819050919050565b82818337600083830152505050565b60005b838110156107b657808201518184015260208101905061079b565b838111156107c5576000848401525b50505050565b600060028204905060018216806107e357607f821691505b602082108114156107f7576107f6610875565b5b50919050565b60006108088261077f565b91507fffffffffffffffffffffffffffffffffffffffffffffffffffffffffffffffff82141561083b5761083a610846565b5b600182019050919050565b7f4e487b7100000000000000000000000000000000000000000000000000000000600052601160045260246000fd5b7f4e487b7100000000000000000000000000000000000000000000000000000000600052602260045260246000fd5b7f4e487b7100000000000000000000000000000000000000000000000000000000600052604160045260246000fd5b6000601f19601f8301169050919050565b6108ed8161077f565b81146108f857600080fd5b5056fea26469706673582212200119fa8276fcb00d7c8eac59559ea2074a04039c15e7723d73cb99e7714ea8a064736f6c63430008000033",
  "immutableReferences": {},
  "source": "//SPDX-License-Identifier: GPL - 3.0\n\npragma solidity ^0.8.0;\n\ncontract InfinityTower{\n\n    //defined what a floor is\n    struct Floor{\n        string ownerName;\n        string message;\n        string link;\n        uint color;\n        uint windowsTint;\n    }\n\n    //because we don't want to go through each floor in the array to get all info, we create an event\n    event NewFLoor(uint floor, string ownerName, string message, string link, uint color, uint windowsTint);\n\n    //our tower needs these floors\n    Floor[] public floors; \n\n    //the number of floors, don't need\n    uint public nbFloors;\n   \n    //the _ means its not variables that exist in our contract\n    function createFloor(string memory _ownerName, string memory _message, string memory _link, uint _color, uint _windowsTint ) public {\n        //push this info onto floors\n        floors.push(Floor (_ownerName, _message, _link, _color, _windowsTint));\n        //emit will display to the frontend that a newfloor has been created\n        emit NewFLoor(nbFloors, _ownerName, _message, _link, _color, _windowsTint);\n        nbFloors++;\n    }\n\n}",
  "sourcePath": "/Users/aparna/Documents/GitHub/dummyDapp/contracts/InfinityTower.sol",
  "compiler": {
    "name": "solc",
    "version": "0.8.0+commit.c7dfd78e.Emscripten.clang"
  },
  "schemaVersion": "3.4.16",
  "updatedAt": "2024-05-03T19:52:47.227Z",
  "networkType": "ethereum",
  "devdoc": {
    "kind": "dev",
    "methods": {},
    "version": 1
  },
  "userdoc": {
    "kind": "user",
    "methods": {},
    "version": 1
  }
}